{
  "_format": "hh-sol-artifact-1",
  "contractName": "TitleGuard",
  "sourceName": "contracts/TitleGuard.sol",
  "abi": [
    {
      "inputs": [
        {
          "internalType": "bytes32",
          "name": "documentHash",
          "type": "bytes32"
        },
        {
          "internalType": "string",
          "name": "existingParcel",
          "type": "string"
        }
      ],
      "name": "HashAlreadyRegistered",
      "type": "error"
    },
    {
      "inputs": [],
      "name": "InvalidInput",
      "type": "error"
    },
    {
      "inputs": [
        {
          "internalType": "string",
          "name": "parcelNumber",
          "type": "string"
        }
      ],
      "name": "ParcelAlreadyRegistered",
      "type": "error"
    },
    {
      "inputs": [
        {
          "internalType": "string",
          "name": "parcelNumber",
          "type": "string"
        }
      ],
      "name": "ParcelNotRegistered",
      "type": "error"
    },
    {
      "anonymous": false,
      "inputs": [
        {
          "indexed": true,
          "internalType": "string",
          "name": "parcelNumber",
          "type": "string"
        },
        {
          "indexed": false,
          "internalType": "bytes32",
          "name": "expectedHash",
          "type": "bytes32"
        },
        {
          "indexed": false,
          "internalType": "bytes32",
          "name": "providedHash",
          "type": "bytes32"
        },
        {
          "indexed": false,
          "internalType": "address",
          "name": "checkedBy",
          "type": "address"
        },
        {
          "indexed": false,
          "internalType": "uint256",
          "name": "timestamp",
          "type": "uint256"
        }
      ],
      "name": "ConflictDetected",
      "type": "event"
    },
    {
      "anonymous": false,
      "inputs": [
        {
          "indexed": true,
          "internalType": "string",
          "name": "parcelNumber",
          "type": "string"
        },
        {
          "indexed": false,
          "internalType": "bytes32",
          "name": "documentHash",
          "type": "bytes32"
        },
        {
          "indexed": false,
          "internalType": "address",
          "name": "registeredBy",
          "type": "address"
        },
        {
          "indexed": false,
          "internalType": "uint256",
          "name": "timestamp",
          "type": "uint256"
        }
      ],
      "name": "DocumentRegistered",
      "type": "event"
    },
    {
      "anonymous": false,
      "inputs": [
        {
          "indexed": true,
          "internalType": "string",
          "name": "parcelNumber",
          "type": "string"
        },
        {
          "indexed": false,
          "internalType": "bytes32",
          "name": "documentHash",
          "type": "bytes32"
        },
        {
          "indexed": false,
          "internalType": "bool",
          "name": "isAuthentic",
          "type": "bool"
        },
        {
          "indexed": false,
          "internalType": "uint256",
          "name": "timestamp",
          "type": "uint256"
        }
      ],
      "name": "DocumentVerified",
      "type": "event"
    },
    {
      "inputs": [
        {
          "internalType": "string",
          "name": "parcelNumber",
          "type": "string"
        }
      ],
      "name": "getDocumentHash",
      "outputs": [
        {
          "internalType": "bytes32",
          "name": "",
          "type": "bytes32"
        }
      ],
      "stateMutability": "view",
      "type": "function"
    },
    {
      "inputs": [
        {
          "internalType": "bytes32",
          "name": "documentHash",
          "type": "bytes32"
        }
      ],
      "name": "getParcelByHash",
      "outputs": [
        {
          "internalType": "string",
          "name": "",
          "type": "string"
        }
      ],
      "stateMutability": "view",
      "type": "function"
    },
    {
      "inputs": [
        {
          "internalType": "string",
          "name": "parcelNumber",
          "type": "string"
        }
      ],
      "name": "isParcelRegistered",
      "outputs": [
        {
          "internalType": "bool",
          "name": "",
          "type": "bool"
        }
      ],
      "stateMutability": "view",
      "type": "function"
    },
    {
      "inputs": [
        {
          "internalType": "string",
          "name": "parcelNumber",
          "type": "string"
        },
        {
          "internalType": "bytes32",
          "name": "documentHash",
          "type": "bytes32"
        }
      ],
      "name": "registerDocument",
      "outputs": [],
      "stateMutability": "nonpayable",
      "type": "function"
    },
    {
      "inputs": [
        {
          "internalType": "string",
          "name": "parcelNumber",
          "type": "string"
        },
        {
          "internalType": "bytes32",
          "name": "documentHash",
          "type": "bytes32"
        }
      ],
      "name": "verifyDocument",
      "outputs": [
        {
          "internalType": "bool",
          "name": "isAuthentic",
          "type": "bool"
        }
      ],
      "stateMutability": "nonpayable",
      "type": "function"
    }
  ],
  "bytecode": "0x608060405234801561001057600080fd5b50610917806100206000396000f3fe608060405234801561001057600080fd5b50600436106100575760003560e01c80633107ed831461005c57806374152d381461007157806380452f1414610099578063930afed3146100ac578063bb6ccd94146100cc575b600080fd5b61006f61006a3660046105b2565b6100ed565b005b61008461007f3660046105b2565b610294565b60405190151581526020015b60405180910390f35b6100846100a73660046105fe565b610427565b6100bf6100ba366004610640565b610456565b6040516100909190610659565b6100df6100da3660046105fe565b6104f8565b604051908152602001610090565b600082900361010f5760405163b4fa3fb360e01b815260040160405180910390fd5b8061012d5760405163b4fa3fb360e01b815260040160405180910390fd5b6001838360405161013f9291906106a8565b9081526040519081900360200190205460ff161561017d57828260405163965db28f60e01b81526004016101749291906106b8565b60405180910390fd5b60008181526002602052604081208054610196906106e7565b905011156101c85760008181526002602052604090819020905163650a3c5360e01b8152610174918391600401610721565b80600084846040516101db9291906106a8565b90815260200160405180910390208190555060018084846040516102009291906106a8565b9081526040805160209281900383019020805460ff1916931515939093179092556000838152600290915220610237838583610820565b5082826040516102489291906106a8565b604080519182900382208383523360208401524283830152905190917f2bb9612f766802797e14966fe5c95a6ebc095db3a385fe4fcb6b905c05a721b7919081900360600190a2505050565b6000600184846040516102a89291906106a8565b9081526040519081900360200190205460ff166102dc578383604051634f2ccc4b60e11b81526004016101749291906106b8565b60008085856040516102ef9291906106a8565b90815260200160405180910390205490508281149150811561036857848460405161031b9291906106a8565b60408051918290038220858352600160208401524283830152905190917fea0ee905cae55472f1da3c5758e828e1f28bb8ede2640a7cb5289666048fdf89919081900360600190a261041f565b84846040516103789291906106a8565b60408051918290038220838352602083018690523383830152426060840152905190917f820bfc0bc4378b6d2ad283a8c3e4425471962b4ec8746e0bedd09e373e8b1d06919081900360800190a284846040516103d69291906106a8565b60408051918290038220858352600060208401524283830152905190917fea0ee905cae55472f1da3c5758e828e1f28bb8ede2640a7cb5289666048fdf89919081900360600190a25b509392505050565b60006001838360405161043b9291906106a8565b9081526040519081900360200190205460ff16905092915050565b6000818152600260205260409020805460609190610473906106e7565b80601f016020809104026020016040519081016040528092919081815260200182805461049f906106e7565b80156104ec5780601f106104c1576101008083540402835291602001916104ec565b820191906000526020600020905b8154815290600101906020018083116104cf57829003601f168201915b50505050509050919050565b60006001838360405161050c9291906106a8565b9081526040519081900360200190205460ff16610540578282604051634f2ccc4b60e11b81526004016101749291906106b8565b600083836040516105529291906106a8565b908152602001604051809103902054905092915050565b60008083601f84011261057b57600080fd5b50813567ffffffffffffffff81111561059357600080fd5b6020830191508360208285010111156105ab57600080fd5b9250929050565b6000806000604084860312156105c757600080fd5b833567ffffffffffffffff8111156105de57600080fd5b6105ea86828701610569565b909790965060209590950135949350505050565b6000806020838503121561061157600080fd5b823567ffffffffffffffff81111561062857600080fd5b61063485828601610569565b90969095509350505050565b60006020828403121561065257600080fd5b5035919050565b60006020808352835180602085015260005b818110156106875785810183015185820160400152820161066b565b506000604082860101526040601f19601f8301168501019250505092915050565b8183823760009101908152919050565b60208152816020820152818360408301376000818301604090810191909152601f909201601f19160101919050565b600181811c908216806106fb57607f821691505b60208210810361071b57634e487b7160e01b600052602260045260246000fd5b50919050565b82815260006020604060208401526000845461073c816106e7565b806040870152606060018084166000811461075e576001811461077a576107aa565b60ff19851660608a0152606084151560051b8a010195506107aa565b89600052602060002060005b858110156107a15781548b8201860152908301908801610786565b8a016060019650505b50939998505050505050505050565b634e487b7160e01b600052604160045260246000fd5b601f82111561081b576000816000526020600020601f850160051c810160208610156107f85750805b601f850160051c820191505b8181101561081757828155600101610804565b5050505b505050565b67ffffffffffffffff831115610838576108386107b9565b61084c8361084683546106e7565b836107cf565b6000601f84116001811461088057600085156108685750838201355b600019600387901b1c1916600186901b1783556108da565b600083815260209020601f19861690835b828110156108b15786850135825560209485019460019092019101610891565b50868210156108ce5760001960f88860031b161c19848701351681555b505060018560011b0183555b505050505056fea264697066735822122096b1aed6fd719d076caa4652fa850c6687e8bd67a695484d7b637d2d3591a43164736f6c63430008180033",
  "linkReferences": {},
  "deployedLinkReferences": {}
}